{
  "contractName": "LandRFT",
  "abi": [
    {
      "inputs": [],
      "stateMutability": "nonpayable",
      "type": "constructor"
    },
    {
      "inputs": [
        {
          "internalType": "uint256",
          "name": "",
          "type": "uint256"
        }
      ],
      "name": "nftDetails",
      "outputs": [
        {
          "internalType": "uint256",
          "name": "id",
          "type": "uint256"
        },
        {
          "internalType": "string",
          "name": "name",
          "type": "string"
        },
        {
          "internalType": "string",
          "name": "symbol",
          "type": "string"
        },
        {
          "internalType": "address",
          "name": "admin",
          "type": "address"
        },
        {
          "internalType": "address",
          "name": "erc20Holdable",
          "type": "address"
        },
        {
          "internalType": "uint256",
          "name": "sqft",
          "type": "uint256"
        },
        {
          "internalType": "uint256",
          "name": "pricePerSqft",
          "type": "uint256"
        },
        {
          "internalType": "uint256",
          "name": "monthlyRent",
          "type": "uint256"
        },
        {
          "internalType": "string",
          "name": "image",
          "type": "string"
        },
        {
          "internalType": "uint256",
          "name": "sqftRemaining",
          "type": "uint256"
        },
        {
          "internalType": "uint256",
          "name": "shareCounter",
          "type": "uint256"
        }
      ],
      "stateMutability": "view",
      "type": "function"
    },
    {
      "inputs": [
        {
          "internalType": "uint256",
          "name": "",
          "type": "uint256"
        }
      ],
      "name": "nftTokens",
      "outputs": [
        {
          "internalType": "contract NftToken",
          "name": "",
          "type": "address"
        }
      ],
      "stateMutability": "view",
      "type": "function"
    },
    {
      "inputs": [
        {
          "internalType": "uint256",
          "name": "",
          "type": "uint256"
        }
      ],
      "name": "shareTokens",
      "outputs": [
        {
          "internalType": "contract ShareToken",
          "name": "",
          "type": "address"
        }
      ],
      "stateMutability": "view",
      "type": "function"
    },
    {
      "inputs": [
        {
          "internalType": "uint256",
          "name": "",
          "type": "uint256"
        },
        {
          "internalType": "address",
          "name": "",
          "type": "address"
        }
      ],
      "name": "sharesCount",
      "outputs": [
        {
          "internalType": "uint256",
          "name": "",
          "type": "uint256"
        }
      ],
      "stateMutability": "view",
      "type": "function"
    },
    {
      "inputs": [
        {
          "internalType": "uint256",
          "name": "",
          "type": "uint256"
        },
        {
          "internalType": "address",
          "name": "",
          "type": "address"
        }
      ],
      "name": "sharesdetails",
      "outputs": [
        {
          "internalType": "uint256",
          "name": "nftId",
          "type": "uint256"
        },
        {
          "internalType": "uint256",
          "name": "landBlockId",
          "type": "uint256"
        },
        {
          "internalType": "address",
          "name": "owner",
          "type": "address"
        },
        {
          "internalType": "bool",
          "name": "onLoan",
          "type": "bool"
        },
        {
          "internalType": "address",
          "name": "loanedOwner",
          "type": "address"
        },
        {
          "internalType": "uint256",
          "name": "cleanlinessScore",
          "type": "uint256"
        },
        {
          "internalType": "uint256",
          "name": "aavegotchiId",
          "type": "uint256"
        },
        {
          "internalType": "uint256",
          "name": "loanDeadLine",
          "type": "uint256"
        }
      ],
      "stateMutability": "view",
      "type": "function"
    },
    {
      "inputs": [
        {
          "internalType": "string",
          "name": "_name",
          "type": "string"
        },
        {
          "internalType": "string",
          "name": "_symbol",
          "type": "string"
        },
        {
          "internalType": "uint256",
          "name": "_totalSqft",
          "type": "uint256"
        },
        {
          "internalType": "uint256",
          "name": "_pricePerSqft",
          "type": "uint256"
        },
        {
          "internalType": "uint256",
          "name": "_monthlyRent",
          "type": "uint256"
        },
        {
          "internalType": "string",
          "name": "_image",
          "type": "string"
        }
      ],
      "name": "_mint",
      "outputs": [],
      "stateMutability": "nonpayable",
      "type": "function"
    },
    {
      "inputs": [
        {
          "internalType": "uint256",
          "name": "_amount",
          "type": "uint256"
        },
        {
          "internalType": "uint256",
          "name": "_nftID",
          "type": "uint256"
        },
        {
          "internalType": "uint256[]",
          "name": "_landBlockID",
          "type": "uint256[]"
        }
      ],
      "name": "buyShare",
      "outputs": [],
      "stateMutability": "payable",
      "type": "function"
    }
  ],
  "bytecode": "0x6080604052600060015534801561001557600080fd5b50336000806101000a81548173ffffffffffffffffffffffffffffffffffffffff021916908373ffffffffffffffffffffffffffffffffffffffff1602179055506166e9806100656000396000f3fe6080604052600436106200007a5760003560e01c80637d4cd84711620000555780637d4cd84714620003f15780638217f846146200061a578063a4e7a535146200068d578063e68b0944146200078d576200007a565b80630e540106146200007f57806313f44704146200015157806343312e041462000372575b600080fd5b6200014f600480360360608110156200009757600080fd5b81019080803590602001909291908035906020019092919080359060200190640100000000811115620000c957600080fd5b820183602082011115620000dc57600080fd5b80359060200191846020830284011164010000000083111715620000ff57600080fd5b919080806020026020016040519081016040528093929190818152602001838360200280828437600081840152601f19601f8201169050808301925050505050505091929192905050506200080c565b005b3480156200015e57600080fd5b5062000370600480360360c08110156200017757600080fd5b81019080803590602001906401000000008111156200019557600080fd5b820183602082011115620001a857600080fd5b80359060200191846001830284011164010000000083111715620001cb57600080fd5b91908080601f016020809104026020016040519081016040528093929190818152602001838380828437600081840152601f19601f820116905080830192505050505050509192919290803590602001906401000000008111156200022f57600080fd5b8201836020820111156200024257600080fd5b803590602001918460018302840111640100000000831117156200026557600080fd5b91908080601f016020809104026020016040519081016040528093929190818152602001838380828437600081840152601f19601f82011690508083019250505050505050919291929080359060200190929190803590602001909291908035906020019092919080359060200190640100000000811115620002e757600080fd5b820183602082011115620002fa57600080fd5b803590602001918460018302840111640100000000831117156200031d57600080fd5b91908080601f016020809104026020016040519081016040528093929190818152602001838380828437600081840152601f19601f820116905080830192505050505050509192919290505050620010fb565b005b3480156200037f57600080fd5b50620003af600480360360208110156200039857600080fd5b810190808035906020019092919050505062001642565b604051808273ffffffffffffffffffffffffffffffffffffffff1673ffffffffffffffffffffffffffffffffffffffff16815260200191505060405180910390f35b348015620003fe57600080fd5b506200042e600480360360208110156200041757600080fd5b810190808035906020019092919050505062001675565b604051808c815260200180602001806020018b73ffffffffffffffffffffffffffffffffffffffff1673ffffffffffffffffffffffffffffffffffffffff1681526020018a73ffffffffffffffffffffffffffffffffffffffff1673ffffffffffffffffffffffffffffffffffffffff1681526020018981526020018881526020018781526020018060200186815260200185815260200184810384528e818151815260200191508051906020019080838360005b8381101562000500578082015181840152602081019050620004e3565b50505050905090810190601f1680156200052e5780820380516001836020036101000a031916815260200191505b5084810383528d818151815260200191508051906020019080838360005b83811015620005695780820151818401526020810190506200054c565b50505050905090810190601f168015620005975780820380516001836020036101000a031916815260200191505b50848103825287818151815260200191508051906020019080838360005b83811015620005d2578082015181840152602081019050620005b5565b50505050905090810190601f168015620006005780820380516001836020036101000a031916815260200191505b509e50505050505050505050505050505060405180910390f35b3480156200062757600080fd5b5062000677600480360360408110156200064057600080fd5b8101908080359060200190929190803573ffffffffffffffffffffffffffffffffffffffff169060200190929190505050620018e3565b6040518082815260200191505060405180910390f35b3480156200069a57600080fd5b50620006ea60048036036040811015620006b357600080fd5b8101908080359060200190929190803573ffffffffffffffffffffffffffffffffffffffff16906020019092919050505062001908565b604051808981526020018881526020018773ffffffffffffffffffffffffffffffffffffffff1673ffffffffffffffffffffffffffffffffffffffff168152602001861515151581526020018573ffffffffffffffffffffffffffffffffffffffff1673ffffffffffffffffffffffffffffffffffffffff1681526020018481526020018381526020018281526020019850505050505050505060405180910390f35b3480156200079a57600080fd5b50620007ca60048036036020811015620007b357600080fd5b8101908080359060200190929190505050620019aa565b604051808273ffffffffffffffffffffffffffffffffffffffff1673ffffffffffffffffffffffffffffffffffffffff16815260200191505060405180910390f35b6000809054906101000a900473ffffffffffffffffffffffffffffffffffffffff1673ffffffffffffffffffffffffffffffffffffffff163373ffffffffffffffffffffffffffffffffffffffff161415620008d0576040517f08c379a00000000000000000000000000000000000000000000000000000000081526004018080602001828103825260178152602001807f41646d696e2063616e6e6f74206275792073686172657300000000000000000081525060200191505060405180910390fd5b620008da620019dd565b600460008481526020019081526020016000206040518061016001604052908160008201548152602001600182018054600181600116156101000203166002900480601f016020809104026020016040519081016040528092919081815260200182805460018160011615610100020316600290048015620009a05780601f106200097457610100808354040283529160200191620009a0565b820191906000526020600020905b8154815290600101906020018083116200098257829003601f168201915b50505050508152602001600282018054600181600116156101000203166002900480601f01602080910402602001604051908101604052809291908181526020018280546001816001161561010002031660029004801562000a465780601f1062000a1a5761010080835404028352916020019162000a46565b820191906000526020600020905b81548152906001019060200180831162000a2857829003601f168201915b505050505081526020016003820160009054906101000a900473ffffffffffffffffffffffffffffffffffffffff1673ffffffffffffffffffffffffffffffffffffffff1673ffffffffffffffffffffffffffffffffffffffff1681526020016004820160009054906101000a900473ffffffffffffffffffffffffffffffffffffffff1673ffffffffffffffffffffffffffffffffffffffff1673ffffffffffffffffffffffffffffffffffffffff168152602001600582015481526020016006820154815260200160078201548152602001600882018054600181600116156101000203166002900480601f01602080910402602001604051908101604052809291908181526020018280546001816001161561010002031660029004801562000bb65780601f1062000b8a5761010080835404028352916020019162000bb6565b820191906000526020600020905b81548152906001019060200180831162000b9857829003601f168201915b5050505050815260200160098201548152602001600a82015481525050905060018161014001510181610140018181525050838161012001510381610120018181525050806004600085815260200190815260200160002060008201518160000155602082015181600101908051906020019062000c3692919062001a63565b50604082015181600201908051906020019062000c5592919062001a63565b5060608201518160030160006101000a81548173ffffffffffffffffffffffffffffffffffffffff021916908373ffffffffffffffffffffffffffffffffffffffff16021790555060808201518160040160006101000a81548173ffffffffffffffffffffffffffffffffffffffff021916908373ffffffffffffffffffffffffffffffffffffffff16021790555060a0820151816005015560c0820151816006015560e0820151816007015561010082015181600801908051906020019062000d2192919062001a63565b50610120820151816009015561014082015181600a015590505060006006600085815260200190815260200160002060003373ffffffffffffffffffffffffffffffffffffffff1673ffffffffffffffffffffffffffffffffffffffff16815260200190815260200160002054905060008090505b835181101562000f615760405180610100016040528086815260200185838151811062000dbf57fe5b602002602001015181526020013373ffffffffffffffffffffffffffffffffffffffff1681526020016000151581526020013373ffffffffffffffffffffffffffffffffffffffff168152602001600081526020016000815260200160008152506005600087815260200190815260200160002060003373ffffffffffffffffffffffffffffffffffffffff1673ffffffffffffffffffffffffffffffffffffffff168152602001908152602001600020600082015181600001556020820151816001015560408201518160020160006101000a81548173ffffffffffffffffffffffffffffffffffffffff021916908373ffffffffffffffffffffffffffffffffffffffff16021790555060608201518160020160146101000a81548160ff02191690831515021790555060808201518160030160006101000a81548173ffffffffffffffffffffffffffffffffffffffff021916908373ffffffffffffffffffffffffffffffffffffffff16021790555060a0820151816004015560c0820151816005015560e08201518160060155905050808060010191505062000d96565b50600081111562000fc7578481019050806006600086815260200190815260200160002060003373ffffffffffffffffffffffffffffffffffffffff1673ffffffffffffffffffffffffffffffffffffffff168152602001908152602001600020819055505b6002600085815260200190815260200160002060009054906101000a900473ffffffffffffffffffffffffffffffffffffffff1673ffffffffffffffffffffffffffffffffffffffff166323b872dd3033886040518463ffffffff1660e01b8152600401808473ffffffffffffffffffffffffffffffffffffffff1673ffffffffffffffffffffffffffffffffffffffff1681526020018373ffffffffffffffffffffffffffffffffffffffff1673ffffffffffffffffffffffffffffffffffffffff1681526020018281526020019350505050602060405180830381600087803b158015620010b657600080fd5b505af1158015620010cb573d6000803e3d6000fd5b505050506040513d6020811015620010e257600080fd5b8101908080519060200190929190505050505050505050565b6000809054906101000a900473ffffffffffffffffffffffffffffffffffffffff1673ffffffffffffffffffffffffffffffffffffffff163373ffffffffffffffffffffffffffffffffffffffff16146200115557600080fd5b60016000815480929190600101919050555060008686336001546040516200117d9062001aea565b8080602001806020018573ffffffffffffffffffffffffffffffffffffffff1673ffffffffffffffffffffffffffffffffffffffff168152602001848152602001838103835287818151815260200191508051906020019080838360005b83811015620011f8578082015181840152602081019050620011db565b50505050905090810190601f168015620012265780820380516001836020036101000a031916815260200191505b50838103825286818151815260200191508051906020019080838360005b838110156200126157808201518184015260208101905062001244565b50505050905090810190601f1680156200128f5780820380516001836020036101000a031916815260200191505b509650505050505050604051809103906000f080158015620012b5573d6000803e3d6000fd5b5090508060036000600154815260200190815260200160002060006101000a81548173ffffffffffffffffffffffffffffffffffffffff021916908373ffffffffffffffffffffffffffffffffffffffff16021790555060008787876040516200131f9062001af8565b808060200180602001848152602001838103835286818151815260200191508051906020019080838360005b83811015620013685780820151818401526020810190506200134b565b50505050905090810190601f168015620013965780820380516001836020036101000a031916815260200191505b50838103825285818151815260200191508051906020019080838360005b83811015620013d1578082015181840152602081019050620013b4565b50505050905090810190601f168015620013ff5780820380516001836020036101000a031916815260200191505b5095505050505050604051809103906000f08015801562001424573d6000803e3d6000fd5b5090508060026000600154815260200190815260200160002060006101000a81548173ffffffffffffffffffffffffffffffffffffffff021916908373ffffffffffffffffffffffffffffffffffffffff16021790555060405180610160016040528060015481526020018981526020018881526020013373ffffffffffffffffffffffffffffffffffffffff1681526020018273ffffffffffffffffffffffffffffffffffffffff16815260200187815260200186815260200185815260200184815260200187815260200160008152506004600060015481526020019081526020016000206000820151816000015560208201518160010190805190602001906200153392919062001a63565b5060408201518160020190805190602001906200155292919062001a63565b5060608201518160030160006101000a81548173ffffffffffffffffffffffffffffffffffffffff021916908373ffffffffffffffffffffffffffffffffffffffff16021790555060808201518160040160006101000a81548173ffffffffffffffffffffffffffffffffffffffff021916908373ffffffffffffffffffffffffffffffffffffffff16021790555060a0820151816005015560c0820151816006015560e082015181600701556101008201518160080190805190602001906200161e92919062001a63565b50610120820151816009015561014082015181600a01559050505050505050505050565b60026020528060005260406000206000915054906101000a900473ffffffffffffffffffffffffffffffffffffffff1681565b6004602052806000526040600020600091509050806000015490806001018054600181600116156101000203166002900480601f0160208091040260200160405190810160405280929190818152602001828054600181600116156101000203166002900480156200172b5780601f10620016ff576101008083540402835291602001916200172b565b820191906000526020600020905b8154815290600101906020018083116200170d57829003601f168201915b505050505090806002018054600181600116156101000203166002900480601f016020809104026020016040519081016040528092919081815260200182805460018160011615610100020316600290048015620017cd5780601f10620017a157610100808354040283529160200191620017cd565b820191906000526020600020905b815481529060010190602001808311620017af57829003601f168201915b5050505050908060030160009054906101000a900473ffffffffffffffffffffffffffffffffffffffff16908060040160009054906101000a900473ffffffffffffffffffffffffffffffffffffffff1690806005015490806006015490806007015490806008018054600181600116156101000203166002900480601f016020809104026020016040519081016040528092919081815260200182805460018160011615610100020316600290048015620018cd5780601f10620018a157610100808354040283529160200191620018cd565b820191906000526020600020905b815481529060010190602001808311620018af57829003601f168201915b50505050509080600901549080600a015490508b565b6006602052816000526040600020602052806000526040600020600091509150505481565b6005602052816000526040600020602052806000526040600020600091509150508060000154908060010154908060020160009054906101000a900473ffffffffffffffffffffffffffffffffffffffff16908060020160149054906101000a900460ff16908060030160009054906101000a900473ffffffffffffffffffffffffffffffffffffffff16908060040154908060050154908060060154905088565b60036020528060005260406000206000915054906101000a900473ffffffffffffffffffffffffffffffffffffffff1681565b604051806101600160405280600081526020016060815260200160608152602001600073ffffffffffffffffffffffffffffffffffffffff168152602001600073ffffffffffffffffffffffffffffffffffffffff1681526020016000815260200160008152602001600081526020016060815260200160008152602001600081525090565b828054600181600116156101000203166002900490600052602060002090601f016020900481019282601f1062001aa657805160ff191683800117855562001ad7565b8280016001018555821562001ad7579182015b8281111562001ad657825182559160200191906001019062001ab9565b5b50905062001ae6919062001b06565b5090565b6133fd8062001b2f83390190565b6117888062004f2c83390190565b62001b2b91905b8082111562001b2757600081600090555060010162001b0d565b5090565b9056fe60806040523480156200001157600080fd5b50604051620033fd380380620033fd833981810160405260808110156200003757600080fd5b81019080805160405193929190846401000000008211156200005857600080fd5b838201915060208201858111156200006f57600080fd5b82518660018202830111640100000000821117156200008d57600080fd5b8083526020830192505050908051906020019080838360005b83811015620000c3578082015181840152602081019050620000a6565b50505050905090810190601f168015620000f15780820380516001836020036101000a031916815260200191505b50604052602001805160405193929190846401000000008211156200011557600080fd5b838201915060208201858111156200012c57600080fd5b82518660018202830111640100000000821117156200014a57600080fd5b8083526020830192505050908051906020019080838360005b838110156200018057808201518184015260208101905062000163565b50505050905090810190601f168015620001ae5780820380516001836020036101000a031916815260200191505b5060405260200180519060200190929190805190602001909291905050506040518060400160405280600481526020017f4c616e64000000000000000000000000000000000000000000000000000000008152506040518060400160405280600381526020017f4c4e440000000000000000000000000000000000000000000000000000000000815250620002506301ffc9a760e01b6200035b60201b60201c565b816006908051906020019062000268929190620008c1565b50806007908051906020019062000281929190620008c1565b506200029a6380ac58cd60e01b6200035b60201b60201c565b620002b2635b5e139f60e01b6200035b60201b60201c565b620002ca63780e9d6360e01b6200035b60201b60201c565b505083600a9080519060200190620002e4929190620008c1565b5082600b9080519060200190620002fd929190620008c1565b5081600c60006101000a81548173ffffffffffffffffffffffffffffffffffffffff021916908373ffffffffffffffffffffffffffffffffffffffff1602179055506200035182826200046460201b60201c565b5050505062000970565b63ffffffff60e01b817bffffffffffffffffffffffffffffffffffffffffffffffffffffffff19161415620003f8576040517f08c379a000000000000000000000000000000000000000000000000000000000815260040180806020018281038252601c8152602001807f4552433136353a20696e76616c696420696e746572666163652069640000000081525060200191505060405180910390fd5b6001600080837bffffffffffffffffffffffffffffffffffffffffffffffffffffffff19167bffffffffffffffffffffffffffffffffffffffffffffffffffffffff1916815260200190815260200160002060006101000a81548160ff02191690831515021790555050565b600073ffffffffffffffffffffffffffffffffffffffff168273ffffffffffffffffffffffffffffffffffffffff16141562000508576040517f08c379a00000000000000000000000000000000000000000000000000000000081526004018080602001828103825260208152602001807f4552433732313a206d696e7420746f20746865207a65726f206164647265737381525060200191505060405180910390fd5b62000519816200067860201b60201c565b156200058d576040517f08c379a000000000000000000000000000000000000000000000000000000000815260040180806020018281038252601c8152602001807f4552433732313a20746f6b656e20616c7265616479206d696e7465640000000081525060200191505060405180910390fd5b620005a1600083836200069c60201b60201c565b620005f981600160008573ffffffffffffffffffffffffffffffffffffffff1673ffffffffffffffffffffffffffffffffffffffff168152602001908152602001600020620006a160201b62001e291790919060201c565b506200061781836002620006c360201b62001e43179092919060201c565b50808273ffffffffffffffffffffffffffffffffffffffff16600073ffffffffffffffffffffffffffffffffffffffff167fddf252ad1be2c89b69c2b068fc378daa952ba7f163c4a11628f55a4df523b3ef60405160405180910390a45050565b6000620006958260026200070060201b62001ddf1790919060201c565b9050919050565b505050565b6000620006bb836000018360001b6200072260201b60201c565b905092915050565b6000620006f7846000018460001b8473ffffffffffffffffffffffffffffffffffffffff1660001b6200079c60201b60201c565b90509392505050565b60006200071a836000018360001b6200087b60201b60201c565b905092915050565b60006200073683836200089e60201b60201c565b6200079157826000018290806001815401808255809150506001900390600052602060002001600090919091909150558260000180549050836001016000848152602001908152602001600020819055506001905062000796565b600090505b92915050565b6000808460010160008581526020019081526020016000205490506000811415620008455784600001604051806040016040528086815260200185815250908060018154018082558091505060019003906000526020600020906002020160009091909190915060008201518160000155602082015181600101555050846000018054905085600101600086815260200190815260200160002081905550600191505062000874565b828560000160018303815481106200085957fe5b90600052602060002090600202016001018190555060009150505b9392505050565b600080836001016000848152602001908152602001600020541415905092915050565b600080836001016000848152602001908152602001600020541415905092915050565b828054600181600116156101000203166002900490600052602060002090601f016020900481019282601f106200090457805160ff191683800117855562000935565b8280016001018555821562000935579182015b828111156200093457825182559160200191906001019062000917565b5b50905062000944919062000948565b5090565b6200096d91905b80821115620009695760008160009055506001016200094f565b5090565b90565b612a7d80620009806000396000f3fe608060405234801561001057600080fd5b506004361061012c5760003560e01c80634f6ccce7116100ad578063a22cb46511610071578063a22cb4651461070c578063b88d4fde1461075c578063c87b56dd14610861578063e985e9c514610908578063f7b5c5b6146109845761012c565b80634f6ccce7146104fe5780636352211e146105405780636c0360eb146105ae57806370a082311461063157806395d89b41146106895761012c565b806323b872dd116100f457806323b872dd146102f35780632b8fdd89146103615780632f745c59146103ab5780633bbdbee01461040d57806342842e0e146104905761012c565b806301ffc9a71461013157806306fdde0314610196578063081812fc14610219578063095ea7b31461028757806318160ddd146102d5575b600080fd5b61017c6004803603602081101561014757600080fd5b8101908080357bffffffffffffffffffffffffffffffffffffffffffffffffffffffff19169060200190929190505050610a07565b604051808215151515815260200191505060405180910390f35b61019e610a6e565b6040518080602001828103825283818151815260200191508051906020019080838360005b838110156101de5780820151818401526020810190506101c3565b50505050905090810190601f16801561020b5780820380516001836020036101000a031916815260200191505b509250505060405180910390f35b6102456004803603602081101561022f57600080fd5b8101908080359060200190929190505050610b10565b604051808273ffffffffffffffffffffffffffffffffffffffff1673ffffffffffffffffffffffffffffffffffffffff16815260200191505060405180910390f35b6102d36004803603604081101561029d57600080fd5b81019080803573ffffffffffffffffffffffffffffffffffffffff16906020019092919080359060200190929190505050610bab565b005b6102dd610cef565b6040518082815260200191505060405180910390f35b61035f6004803603606081101561030957600080fd5b81019080803573ffffffffffffffffffffffffffffffffffffffff169060200190929190803573ffffffffffffffffffffffffffffffffffffffff16906020019092919080359060200190929190505050610d00565b005b610369610d76565b604051808273ffffffffffffffffffffffffffffffffffffffff1673ffffffffffffffffffffffffffffffffffffffff16815260200191505060405180910390f35b6103f7600480360360408110156103c157600080fd5b81019080803573ffffffffffffffffffffffffffffffffffffffff16906020019092919080359060200190929190505050610da0565b6040518082815260200191505060405180910390f35b610415610dfb565b6040518080602001828103825283818151815260200191508051906020019080838360005b8381101561045557808201518184015260208101905061043a565b50505050905090810190601f1680156104825780820380516001836020036101000a031916815260200191505b509250505060405180910390f35b6104fc600480360360608110156104a657600080fd5b81019080803573ffffffffffffffffffffffffffffffffffffffff169060200190929190803573ffffffffffffffffffffffffffffffffffffffff16906020019092919080359060200190929190505050610e9d565b005b61052a6004803603602081101561051457600080fd5b8101908080359060200190929190505050610ebd565b6040518082815260200191505060405180910390f35b61056c6004803603602081101561055657600080fd5b8101908080359060200190929190505050610ee0565b604051808273ffffffffffffffffffffffffffffffffffffffff1673ffffffffffffffffffffffffffffffffffffffff16815260200191505060405180910390f35b6105b6610f17565b6040518080602001828103825283818151815260200191508051906020019080838360005b838110156105f65780820151818401526020810190506105db565b50505050905090810190601f1680156106235780820380516001836020036101000a031916815260200191505b509250505060405180910390f35b6106736004803603602081101561064757600080fd5b81019080803573ffffffffffffffffffffffffffffffffffffffff169060200190929190505050610fb9565b6040518082815260200191505060405180910390f35b61069161108e565b6040518080602001828103825283818151815260200191508051906020019080838360005b838110156106d15780820151818401526020810190506106b6565b50505050905090810190601f1680156106fe5780820380516001836020036101000a031916815260200191505b509250505060405180910390f35b61075a6004803603604081101561072257600080fd5b81019080803573ffffffffffffffffffffffffffffffffffffffff169060200190929190803515159060200190929190505050611130565b005b61085f6004803603608081101561077257600080fd5b81019080803573ffffffffffffffffffffffffffffffffffffffff169060200190929190803573ffffffffffffffffffffffffffffffffffffffff16906020019092919080359060200190929190803590602001906401000000008111156107d957600080fd5b8201836020820111156107eb57600080fd5b8035906020019184600183028401116401000000008311171561080d57600080fd5b91908080601f016020809104026020016040519081016040528093929190818152602001838380828437600081840152601f19601f8201169050808301925050505050505091929192905050506112e8565b005b61088d6004803603602081101561087757600080fd5b8101908080359060200190929190505050611360565b6040518080602001828103825283818151815260200191508051906020019080838360005b838110156108cd5780820151818401526020810190506108b2565b50505050905090810190601f1680156108fa5780820380516001836020036101000a031916815260200191505b509250505060405180910390f35b61096a6004803603604081101561091e57600080fd5b81019080803573ffffffffffffffffffffffffffffffffffffffff169060200190929190803573ffffffffffffffffffffffffffffffffffffffff169060200190929190505050611649565b604051808215151515815260200191505060405180910390f35b61098c6116dd565b6040518080602001828103825283818151815260200191508051906020019080838360005b838110156109cc5780820151818401526020810190506109b1565b50505050905090810190601f1680156109f95780820380516001836020036101000a031916815260200191505b509250505060405180910390f35b6000806000837bffffffffffffffffffffffffffffffffffffffffffffffffffffffff19167bffffffffffffffffffffffffffffffffffffffffffffffffffffffff1916815260200190815260200160002060009054906101000a900460ff169050919050565b606060068054600181600116156101000203166002900480601f016020809104026020016040519081016040528092919081815260200182805460018160011615610100020316600290048015610b065780601f10610adb57610100808354040283529160200191610b06565b820191906000526020600020905b815481529060010190602001808311610ae957829003601f168201915b5050505050905090565b6000610b1b8261177f565b610b70576040517f08c379a000000000000000000000000000000000000000000000000000000000815260040180806020018281038252602c815260200180612972602c913960400191505060405180910390fd5b6004600083815260200190815260200160002060009054906101000a900473ffffffffffffffffffffffffffffffffffffffff169050919050565b6000610bb682610ee0565b90508073ffffffffffffffffffffffffffffffffffffffff168373ffffffffffffffffffffffffffffffffffffffff161415610c3d576040517f08c379a00000000000000000000000000000000000000000000000000000000081526004018080602001828103825260218152602001806129f66021913960400191505060405180910390fd5b8073ffffffffffffffffffffffffffffffffffffffff16610c5c61179c565b73ffffffffffffffffffffffffffffffffffffffff161480610c8b5750610c8a81610c8561179c565b611649565b5b610ce0576040517f08c379a00000000000000000000000000000000000000000000000000000000081526004018080602001828103825260388152602001806128c56038913960400191505060405180910390fd5b610cea83836117a4565b505050565b6000610cfb600261185d565b905090565b610d11610d0b61179c565b82611872565b610d66576040517f08c379a0000000000000000000000000000000000000000000000000000000008152600401808060200182810382526031815260200180612a176031913960400191505060405180910390fd5b610d71838383611966565b505050565b6000600c60009054906101000a900473ffffffffffffffffffffffffffffffffffffffff16905090565b6000610df382600160008673ffffffffffffffffffffffffffffffffffffffff1673ffffffffffffffffffffffffffffffffffffffff168152602001908152602001600020611ba990919063ffffffff16565b905092915050565b6060600a8054600181600116156101000203166002900480601f016020809104026020016040519081016040528092919081815260200182805460018160011615610100020316600290048015610e935780601f10610e6857610100808354040283529160200191610e93565b820191906000526020600020905b815481529060010190602001808311610e7657829003601f168201915b5050505050905090565b610eb8838383604051806020016040528060008152506112e8565b505050565b600080610ed4836002611bc390919063ffffffff16565b50905080915050919050565b6000610f1082604051806060016040528060298152602001612927602991396002611bf29092919063ffffffff16565b9050919050565b606060098054600181600116156101000203166002900480601f016020809104026020016040519081016040528092919081815260200182805460018160011615610100020316600290048015610faf5780601f10610f8457610100808354040283529160200191610faf565b820191906000526020600020905b815481529060010190602001808311610f9257829003601f168201915b5050505050905090565b60008073ffffffffffffffffffffffffffffffffffffffff168273ffffffffffffffffffffffffffffffffffffffff161415611040576040517f08c379a000000000000000000000000000000000000000000000000000000000815260040180806020018281038252602a8152602001806128fd602a913960400191505060405180910390fd5b611087600160008473ffffffffffffffffffffffffffffffffffffffff1673ffffffffffffffffffffffffffffffffffffffff168152602001908152602001600020611c11565b9050919050565b606060078054600181600116156101000203166002900480601f0160208091040260200160405190810160405280929190818152602001828054600181600116156101000203166002900480156111265780601f106110fb57610100808354040283529160200191611126565b820191906000526020600020905b81548152906001019060200180831161110957829003601f168201915b5050505050905090565b61113861179c565b73ffffffffffffffffffffffffffffffffffffffff168273ffffffffffffffffffffffffffffffffffffffff1614156111d9576040517f08c379a00000000000000000000000000000000000000000000000000000000081526004018080602001828103825260198152602001807f4552433732313a20617070726f766520746f2063616c6c65720000000000000081525060200191505060405180910390fd5b80600560006111e661179c565b73ffffffffffffffffffffffffffffffffffffffff1673ffffffffffffffffffffffffffffffffffffffff16815260200190815260200160002060008473ffffffffffffffffffffffffffffffffffffffff1673ffffffffffffffffffffffffffffffffffffffff16815260200190815260200160002060006101000a81548160ff0219169083151502179055508173ffffffffffffffffffffffffffffffffffffffff1661129361179c565b73ffffffffffffffffffffffffffffffffffffffff167f17307eab39ab6107e8899845ad3d59bd9653f200f220920489ca2b5937696c3183604051808215151515815260200191505060405180910390a35050565b6112f96112f361179c565b83611872565b61134e576040517f08c379a0000000000000000000000000000000000000000000000000000000008152600401808060200182810382526031815260200180612a176031913960400191505060405180910390fd5b61135a84848484611c26565b50505050565b606061136b8261177f565b6113c0576040517f08c379a000000000000000000000000000000000000000000000000000000000815260040180806020018281038252602f8152602001806129c7602f913960400191505060405180910390fd5b6060600860008481526020019081526020016000208054600181600116156101000203166002900480601f0160208091040260200160405190810160405280929190818152602001828054600181600116156101000203166002900480156114695780601f1061143e57610100808354040283529160200191611469565b820191906000526020600020905b81548152906001019060200180831161144c57829003601f168201915b505050505090506000600980546001816001161561010002031660029004905014156114985780915050611644565b6000815111156115715760098160405160200180838054600181600116156101000203166002900480156115035780601f106114e1576101008083540402835291820191611503565b820191906000526020600020905b8154815290600101906020018083116114ef575b505082805190602001908083835b602083106115345780518252602082019150602081019050602083039250611511565b6001836020036101000a03801982511681845116808217855250505050505090500192505050604051602081830303815290604052915050611644565b600961157c84611c98565b60405160200180838054600181600116156101000203166002900480156115da5780601f106115b85761010080835404028352918201916115da565b820191906000526020600020905b8154815290600101906020018083116115c6575b505082805190602001908083835b6020831061160b57805182526020820191506020810190506020830392506115e8565b6001836020036101000a038019825116818451168082178552505050505050905001925050506040516020818303038152906040529150505b919050565b6000600560008473ffffffffffffffffffffffffffffffffffffffff1673ffffffffffffffffffffffffffffffffffffffff16815260200190815260200160002060008373ffffffffffffffffffffffffffffffffffffffff1673ffffffffffffffffffffffffffffffffffffffff16815260200190815260200160002060009054906101000a900460ff16905092915050565b6060600b8054600181600116156101000203166002900480601f0160208091040260200160405190810160405280929190818152602001828054600181600116156101000203166002900480156117755780601f1061174a57610100808354040283529160200191611775565b820191906000526020600020905b81548152906001019060200180831161175857829003601f168201915b5050505050905090565b6000611795826002611ddf90919063ffffffff16565b9050919050565b600033905090565b816004600083815260200190815260200160002060006101000a81548173ffffffffffffffffffffffffffffffffffffffff021916908373ffffffffffffffffffffffffffffffffffffffff160217905550808273ffffffffffffffffffffffffffffffffffffffff1661181783610ee0565b73ffffffffffffffffffffffffffffffffffffffff167f8c5be1e5ebec7d5bd14f71427d1e84f3dd0314c0f7b2291e5b200ac8c7c3b92560405160405180910390a45050565b600061186b82600001611df9565b9050919050565b600061187d8261177f565b6118d2576040517f08c379a000000000000000000000000000000000000000000000000000000000815260040180806020018281038252602c815260200180612899602c913960400191505060405180910390fd5b60006118dd83610ee0565b90508073ffffffffffffffffffffffffffffffffffffffff168473ffffffffffffffffffffffffffffffffffffffff16148061194c57508373ffffffffffffffffffffffffffffffffffffffff1661193484610b10565b73ffffffffffffffffffffffffffffffffffffffff16145b8061195d575061195c8185611649565b5b91505092915050565b8273ffffffffffffffffffffffffffffffffffffffff1661198682610ee0565b73ffffffffffffffffffffffffffffffffffffffff16146119f2576040517f08c379a000000000000000000000000000000000000000000000000000000000815260040180806020018281038252602981526020018061299e6029913960400191505060405180910390fd5b600073ffffffffffffffffffffffffffffffffffffffff168273ffffffffffffffffffffffffffffffffffffffff161415611a78576040517f08c379a000000000000000000000000000000000000000000000000000000000815260040180806020018281038252602481526020018061284f6024913960400191505060405180910390fd5b611a83838383611e0a565b611a8e6000826117a4565b611adf81600160008673ffffffffffffffffffffffffffffffffffffffff1673ffffffffffffffffffffffffffffffffffffffff168152602001908152602001600020611e0f90919063ffffffff16565b50611b3181600160008573ffffffffffffffffffffffffffffffffffffffff1673ffffffffffffffffffffffffffffffffffffffff168152602001908152602001600020611e2990919063ffffffff16565b50611b4881836002611e439092919063ffffffff16565b50808273ffffffffffffffffffffffffffffffffffffffff168473ffffffffffffffffffffffffffffffffffffffff167fddf252ad1be2c89b69c2b068fc378daa952ba7f163c4a11628f55a4df523b3ef60405160405180910390a4505050565b6000611bb88360000183611e78565b60001c905092915050565b600080600080611bd68660000186611efb565b915091508160001c8160001c8090509350935050509250929050565b6000611c05846000018460001b84611f94565b60001c90509392505050565b6000611c1f8260000161208a565b9050919050565b611c31848484611966565b611c3d8484848461209b565b611c92576040517f08c379a000000000000000000000000000000000000000000000000000000000815260040180806020018281038252603281526020018061281d6032913960400191505060405180910390fd5b50505050565b60606000821415611ce0576040518060400160405280600181526020017f30000000000000000000000000000000000000000000000000000000000000008152509050611dda565b600082905060005b60008214611d0a578080600101915050600a8281611d0257fe5b049150611ce8565b60608167ffffffffffffffff81118015611d2357600080fd5b506040519080825280601f01601f191660200182016040528015611d565781602001600182028036833780820191505090505b50905060006001830390508593505b60008414611dd257600a8481611d7757fe5b0660300160f81b82828060019003935081518110611d9157fe5b60200101907effffffffffffffffffffffffffffffffffffffffffffffffffffffffffffff1916908160001a905350600a8481611dca57fe5b049350611d65565b819450505050505b919050565b6000611df1836000018360001b6122e0565b905092915050565b600081600001805490509050919050565b505050565b6000611e21836000018360001b612303565b905092915050565b6000611e3b836000018360001b6123eb565b905092915050565b6000611e6f846000018460001b8473ffffffffffffffffffffffffffffffffffffffff1660001b61245b565b90509392505050565b600081836000018054905011611ed9576040517f08c379a00000000000000000000000000000000000000000000000000000000081526004018080602001828103825260228152602001806127fb6022913960400191505060405180910390fd5b826000018281548110611ee857fe5b9060005260206000200154905092915050565b60008082846000018054905011611f5d576040517f08c379a00000000000000000000000000000000000000000000000000000000081526004018080602001828103825260228152602001806129506022913960400191505060405180910390fd5b6000846000018481548110611f6e57fe5b906000526020600020906002020190508060000154816001015492509250509250929050565b6000808460010160008581526020019081526020016000205490506000811415839061205b576040517f08c379a00000000000000000000000000000000000000000000000000000000081526004018080602001828103825283818151815260200191508051906020019080838360005b83811015612020578082015181840152602081019050612005565b50505050905090810190601f16801561204d5780820380516001836020036101000a031916815260200191505b509250505060405180910390fd5b5084600001600182038154811061206e57fe5b9060005260206000209060020201600101549150509392505050565b600081600001805490509050919050565b60006120bc8473ffffffffffffffffffffffffffffffffffffffff16612537565b6120c957600190506122d8565b606061225f63150b7a0260e01b6120de61179c565b888787604051602401808573ffffffffffffffffffffffffffffffffffffffff1673ffffffffffffffffffffffffffffffffffffffff1681526020018473ffffffffffffffffffffffffffffffffffffffff1673ffffffffffffffffffffffffffffffffffffffff16815260200183815260200180602001828103825283818151815260200191508051906020019080838360005b8381101561218e578082015181840152602081019050612173565b50505050905090810190601f1680156121bb5780820380516001836020036101000a031916815260200191505b5095505050505050604051602081830303815290604052907bffffffffffffffffffffffffffffffffffffffffffffffffffffffff19166020820180517bffffffffffffffffffffffffffffffffffffffffffffffffffffffff838183161783525050505060405180606001604052806032815260200161281d603291398773ffffffffffffffffffffffffffffffffffffffff1661254a9092919063ffffffff16565b9050600081806020019051602081101561227857600080fd5b8101908080519060200190929190505050905063150b7a0260e01b7bffffffffffffffffffffffffffffffffffffffffffffffffffffffff1916817bffffffffffffffffffffffffffffffffffffffffffffffffffffffff191614925050505b949350505050565b600080836001016000848152602001908152602001600020541415905092915050565b600080836001016000848152602001908152602001600020549050600081146123df576000600182039050600060018660000180549050039050600086600001828154811061234e57fe5b906000526020600020015490508087600001848154811061236b57fe5b90600052602060002001819055506001830187600101600083815260200190815260200160002081905550866000018054806123a357fe5b600190038181906000526020600020016000905590558660010160008781526020019081526020016000206000905560019450505050506123e5565b60009150505b92915050565b60006123f78383612562565b612450578260000182908060018154018082558091505060019003906000526020600020016000909190919091505582600001805490508360010160008481526020019081526020016000208190555060019050612455565b600090505b92915050565b600080846001016000858152602001908152602001600020549050600081141561250257846000016040518060400160405280868152602001858152509080600181540180825580915050600190039060005260206000209060020201600090919091909150600082015181600001556020820151816001015550508460000180549050856001016000868152602001908152602001600020819055506001915050612530565b8285600001600183038154811061251557fe5b90600052602060002090600202016001018190555060009150505b9392505050565b600080823b905060008111915050919050565b60606125598484600085612585565b90509392505050565b600080836001016000848152602001908152602001600020541415905092915050565b6060824710156125e0576040517f08c379a00000000000000000000000000000000000000000000000000000000081526004018080602001828103825260268152602001806128736026913960400191505060405180910390fd5b6125e985612537565b61265b576040517f08c379a000000000000000000000000000000000000000000000000000000000815260040180806020018281038252601d8152602001807f416464726573733a2063616c6c20746f206e6f6e2d636f6e747261637400000081525060200191505060405180910390fd5b600060608673ffffffffffffffffffffffffffffffffffffffff1685876040518082805190602001908083835b602083106126ab5780518252602082019150602081019050602083039250612688565b6001836020036101000a03801982511681845116808217855250505050505090500191505060006040518083038185875af1925050503d806000811461270d576040519150601f19603f3d011682016040523d82523d6000602084013e612712565b606091505b509150915061272282828661272e565b92505050949350505050565b6060831561273e578290506127f3565b6000835111156127515782518084602001fd5b816040517f08c379a00000000000000000000000000000000000000000000000000000000081526004018080602001828103825283818151815260200191508051906020019080838360005b838110156127b857808201518184015260208101905061279d565b50505050905090810190601f1680156127e55780820380516001836020036101000a031916815260200191505b509250505060405180910390fd5b939250505056fe456e756d657261626c655365743a20696e646578206f7574206f6620626f756e64734552433732313a207472616e7366657220746f206e6f6e20455243373231526563656976657220696d706c656d656e7465724552433732313a207472616e7366657220746f20746865207a65726f2061646472657373416464726573733a20696e73756666696369656e742062616c616e636520666f722063616c6c4552433732313a206f70657261746f7220717565727920666f72206e6f6e6578697374656e7420746f6b656e4552433732313a20617070726f76652063616c6c6572206973206e6f74206f776e6572206e6f7220617070726f76656420666f7220616c6c4552433732313a2062616c616e636520717565727920666f7220746865207a65726f20616464726573734552433732313a206f776e657220717565727920666f72206e6f6e6578697374656e7420746f6b656e456e756d657261626c654d61703a20696e646578206f7574206f6620626f756e64734552433732313a20617070726f76656420717565727920666f72206e6f6e6578697374656e7420746f6b656e4552433732313a207472616e73666572206f6620746f6b656e2074686174206973206e6f74206f776e4552433732314d657461646174613a2055524920717565727920666f72206e6f6e6578697374656e7420746f6b656e4552433732313a20617070726f76616c20746f2063757272656e74206f776e65724552433732313a207472616e736665722063616c6c6572206973206e6f74206f776e6572206e6f7220617070726f766564a2646970667358221220cca39caddf5087188e94d65ab8b3c25ac541fa06fda0209bb8081ada0a18931464736f6c6343000606003360806040523480156200001157600080fd5b506040516200178838038062001788833981810160405260608110156200003757600080fd5b81019080805160405193929190846401000000008211156200005857600080fd5b838201915060208201858111156200006f57600080fd5b82518660018202830111640100000000821117156200008d57600080fd5b8083526020830192505050908051906020019080838360005b83811015620000c3578082015181840152602081019050620000a6565b50505050905090810190601f168015620000f15780820380516001836020036101000a031916815260200191505b50604052602001805160405193929190846401000000008211156200011557600080fd5b838201915060208201858111156200012c57600080fd5b82518660018202830111640100000000821117156200014a57600080fd5b8083526020830192505050908051906020019080838360005b838110156200018057808201518184015260208101905062000163565b50505050905090810190601f168015620001ae5780820380516001836020036101000a031916815260200191505b506040526020018051906020019092919050505080600381905550600354600460003373ffffffffffffffffffffffffffffffffffffffff1673ffffffffffffffffffffffffffffffffffffffff168152602001908152602001600020819055508260009080519060200190620002279291906200034f565b508160019080519060200190620002409291906200034f565b506200025333826200025d60201b60201c565b50505050620003fe565b600081600560003373ffffffffffffffffffffffffffffffffffffffff1673ffffffffffffffffffffffffffffffffffffffff16815260200190815260200160002060008573ffffffffffffffffffffffffffffffffffffffff1673ffffffffffffffffffffffffffffffffffffffff168152602001908152602001600020819055508273ffffffffffffffffffffffffffffffffffffffff163373ffffffffffffffffffffffffffffffffffffffff167f8c5be1e5ebec7d5bd14f71427d1e84f3dd0314c0f7b2291e5b200ac8c7c3b925846040518082815260200191505060405180910390a36001905092915050565b828054600181600116156101000203166002900490600052602060002090601f016020900481019282601f106200039257805160ff1916838001178555620003c3565b82800160010185558215620003c3579182015b82811115620003c2578251825591602001919060010190620003a5565b5b509050620003d29190620003d6565b5090565b620003fb91905b80821115620003f7576000816000905550600101620003dd565b5090565b90565b61137a806200040e6000396000f3fe608060405234801561001057600080fd5b50600436106100a95760003560e01c80635f9fbc2d116100715780635f9fbc2d146102be57806370a08231146103445780637ff9b5961461039c57806395d89b41146103ba578063a9059cbb1461043d578063dd62ed3e146104a3576100a9565b806306fdde03146100ae578063095ea7b31461013157806318160ddd1461019757806323b872dd146101b55780635ea5cabe1461023b575b600080fd5b6100b661051b565b6040518080602001828103825283818151815260200191508051906020019080838360005b838110156100f65780820151818401526020810190506100db565b50505050905090810190601f1680156101235780820380516001836020036101000a031916815260200191505b509250505060405180910390f35b61017d6004803603604081101561014757600080fd5b81019080803573ffffffffffffffffffffffffffffffffffffffff169060200190929190803590602001909291905050506105b9565b604051808215151515815260200191505060405180910390f35b61019f6106ab565b6040518082815260200191505060405180910390f35b610221600480360360608110156101cb57600080fd5b81019080803573ffffffffffffffffffffffffffffffffffffffff169060200190929190803573ffffffffffffffffffffffffffffffffffffffff169060200190929190803590602001909291905050506106b5565b604051808215151515815260200191505060405180910390f35b610243610a35565b6040518080602001828103825283818151815260200191508051906020019080838360005b83811015610283578082015181840152602081019050610268565b50505050905090810190601f1680156102b05780820380516001836020036101000a031916815260200191505b509250505060405180910390f35b61032a600480360360608110156102d457600080fd5b81019080803573ffffffffffffffffffffffffffffffffffffffff169060200190929190803573ffffffffffffffffffffffffffffffffffffffff16906020019092919080359060200190929190505050610ad7565b604051808215151515815260200191505060405180910390f35b6103866004803603602081101561035a57600080fd5b81019080803573ffffffffffffffffffffffffffffffffffffffff169060200190929190505050610e57565b6040518082815260200191505060405180910390f35b6103a4610ea0565b6040518082815260200191505060405180910390f35b6103c2610ea6565b6040518080602001828103825283818151815260200191508051906020019080838360005b838110156104025780820151818401526020810190506103e7565b50505050905090810190601f16801561042f5780820380516001836020036101000a031916815260200191505b509250505060405180910390f35b6104896004803603604081101561045357600080fd5b81019080803573ffffffffffffffffffffffffffffffffffffffff16906020019092919080359060200190929190505050610f44565b604051808215151515815260200191505060405180910390f35b610505600480360360408110156104b957600080fd5b81019080803573ffffffffffffffffffffffffffffffffffffffff169060200190929190803573ffffffffffffffffffffffffffffffffffffffff16906020019092919050505061112b565b6040518082815260200191505060405180910390f35b60008054600181600116156101000203166002900480601f0160208091040260200160405190810160405280929190818152602001828054600181600116156101000203166002900480156105b15780601f10610586576101008083540402835291602001916105b1565b820191906000526020600020905b81548152906001019060200180831161059457829003601f168201915b505050505081565b600081600560003373ffffffffffffffffffffffffffffffffffffffff1673ffffffffffffffffffffffffffffffffffffffff16815260200190815260200160002060008573ffffffffffffffffffffffffffffffffffffffff1673ffffffffffffffffffffffffffffffffffffffff168152602001908152602001600020819055508273ffffffffffffffffffffffffffffffffffffffff163373ffffffffffffffffffffffffffffffffffffffff167f8c5be1e5ebec7d5bd14f71427d1e84f3dd0314c0f7b2291e5b200ac8c7c3b925846040518082815260200191505060405180910390a36001905092915050565b6000600354905090565b6000600460008573ffffffffffffffffffffffffffffffffffffffff1673ffffffffffffffffffffffffffffffffffffffff1681526020019081526020016000205482111561070357600080fd5b600560008573ffffffffffffffffffffffffffffffffffffffff1673ffffffffffffffffffffffffffffffffffffffff16815260200190815260200160002060003373ffffffffffffffffffffffffffffffffffffffff1673ffffffffffffffffffffffffffffffffffffffff1681526020019081526020016000205482111561078c57600080fd5b6107de82600460008773ffffffffffffffffffffffffffffffffffffffff1673ffffffffffffffffffffffffffffffffffffffff168152602001908152602001600020546111b290919063ffffffff16565b600460008673ffffffffffffffffffffffffffffffffffffffff1673ffffffffffffffffffffffffffffffffffffffff168152602001908152602001600020819055506108b082600560008773ffffffffffffffffffffffffffffffffffffffff1673ffffffffffffffffffffffffffffffffffffffff16815260200190815260200160002060003373ffffffffffffffffffffffffffffffffffffffff1673ffffffffffffffffffffffffffffffffffffffff168152602001908152602001600020546111b290919063ffffffff16565b600560008673ffffffffffffffffffffffffffffffffffffffff1673ffffffffffffffffffffffffffffffffffffffff16815260200190815260200160002060003373ffffffffffffffffffffffffffffffffffffffff1673ffffffffffffffffffffffffffffffffffffffff1681526020019081526020016000208190555061098282600460008673ffffffffffffffffffffffffffffffffffffffff1673ffffffffffffffffffffffffffffffffffffffff168152602001908152602001600020546111fc90919063ffffffff16565b600460008573ffffffffffffffffffffffffffffffffffffffff1673ffffffffffffffffffffffffffffffffffffffff168152602001908152602001600020819055508273ffffffffffffffffffffffffffffffffffffffff168473ffffffffffffffffffffffffffffffffffffffff167fddf252ad1be2c89b69c2b068fc378daa952ba7f163c4a11628f55a4df523b3ef846040518082815260200191505060405180910390a3600190509392505050565b606060008054600181600116156101000203166002900480601f016020809104026020016040519081016040528092919081815260200182805460018160011615610100020316600290048015610acd5780601f10610aa257610100808354040283529160200191610acd565b820191906000526020600020905b815481529060010190602001808311610ab057829003601f168201915b5050505050905090565b6000600460008573ffffffffffffffffffffffffffffffffffffffff1673ffffffffffffffffffffffffffffffffffffffff16815260200190815260200160002054821115610b2557600080fd5b600560008573ffffffffffffffffffffffffffffffffffffffff1673ffffffffffffffffffffffffffffffffffffffff16815260200190815260200160002060003373ffffffffffffffffffffffffffffffffffffffff1673ffffffffffffffffffffffffffffffffffffffff16815260200190815260200160002054821115610bae57600080fd5b610c0082600460008773ffffffffffffffffffffffffffffffffffffffff1673ffffffffffffffffffffffffffffffffffffffff168152602001908152602001600020546111b290919063ffffffff16565b600460008673ffffffffffffffffffffffffffffffffffffffff1673ffffffffffffffffffffffffffffffffffffffff16815260200190815260200160002081905550610cd282600560008773ffffffffffffffffffffffffffffffffffffffff1673ffffffffffffffffffffffffffffffffffffffff16815260200190815260200160002060003373ffffffffffffffffffffffffffffffffffffffff1673ffffffffffffffffffffffffffffffffffffffff168152602001908152602001600020546111b290919063ffffffff16565b600560008673ffffffffffffffffffffffffffffffffffffffff1673ffffffffffffffffffffffffffffffffffffffff16815260200190815260200160002060003373ffffffffffffffffffffffffffffffffffffffff1673ffffffffffffffffffffffffffffffffffffffff16815260200190815260200160002081905550610da482600460008673ffffffffffffffffffffffffffffffffffffffff1673ffffffffffffffffffffffffffffffffffffffff168152602001908152602001600020546111fc90919063ffffffff16565b600460008573ffffffffffffffffffffffffffffffffffffffff1673ffffffffffffffffffffffffffffffffffffffff168152602001908152602001600020819055508273ffffffffffffffffffffffffffffffffffffffff168473ffffffffffffffffffffffffffffffffffffffff167fddf252ad1be2c89b69c2b068fc378daa952ba7f163c4a11628f55a4df523b3ef846040518082815260200191505060405180910390a3600190509392505050565b6000600460008373ffffffffffffffffffffffffffffffffffffffff1673ffffffffffffffffffffffffffffffffffffffff168152602001908152602001600020549050919050565b60025481565b60018054600181600116156101000203166002900480601f016020809104026020016040519081016040528092919081815260200182805460018160011615610100020316600290048015610f3c5780601f10610f1157610100808354040283529160200191610f3c565b820191906000526020600020905b815481529060010190602001808311610f1f57829003601f168201915b505050505081565b6000600460003373ffffffffffffffffffffffffffffffffffffffff1673ffffffffffffffffffffffffffffffffffffffff16815260200190815260200160002054821115610f9257600080fd5b610fe482600460003373ffffffffffffffffffffffffffffffffffffffff1673ffffffffffffffffffffffffffffffffffffffff168152602001908152602001600020546111b290919063ffffffff16565b600460003373ffffffffffffffffffffffffffffffffffffffff1673ffffffffffffffffffffffffffffffffffffffff1681526020019081526020016000208190555061107982600460008673ffffffffffffffffffffffffffffffffffffffff1673ffffffffffffffffffffffffffffffffffffffff168152602001908152602001600020546111fc90919063ffffffff16565b600460008573ffffffffffffffffffffffffffffffffffffffff1673ffffffffffffffffffffffffffffffffffffffff168152602001908152602001600020819055508273ffffffffffffffffffffffffffffffffffffffff163373ffffffffffffffffffffffffffffffffffffffff167fddf252ad1be2c89b69c2b068fc378daa952ba7f163c4a11628f55a4df523b3ef846040518082815260200191505060405180910390a36001905092915050565b6000600560008473ffffffffffffffffffffffffffffffffffffffff1673ffffffffffffffffffffffffffffffffffffffff16815260200190815260200160002060008373ffffffffffffffffffffffffffffffffffffffff1673ffffffffffffffffffffffffffffffffffffffff16815260200190815260200160002054905092915050565b60006111f483836040518060400160405280601e81526020017f536166654d6174683a207375627472616374696f6e206f766572666c6f770000815250611284565b905092915050565b60008082840190508381101561127a576040517f08c379a000000000000000000000000000000000000000000000000000000000815260040180806020018281038252601b8152602001807f536166654d6174683a206164646974696f6e206f766572666c6f77000000000081525060200191505060405180910390fd5b8091505092915050565b6000838311158290611331576040517f08c379a00000000000000000000000000000000000000000000000000000000081526004018080602001828103825283818151815260200191508051906020019080838360005b838110156112f65780820151818401526020810190506112db565b50505050905090810190601f1680156113235780820380516001836020036101000a031916815260200191505b509250505060405180910390fd5b506000838503905080915050939250505056fea2646970667358221220b03f4dd1506f5d39c8558661bf037a0e188329d0c4647c71a12833c54dc85ac664736f6c63430006060033a2646970667358221220ddb48d8db6d99b4928c9783963a322db7cc95b7b2862e6f0a5a2b968174cfddb64736f6c63430006060033",
  "immutableReferences": {},
  "source": "pragma solidity >=0.6.0 <0.7.5;\n\nimport \"./token/SharesToken.sol\";\nimport \"./token/Nft.sol\";\nimport \"@openzeppelin/contracts/token/ERC721/ERC721.sol\";\n\ncontract LandRFT {\n    \n    address owner;\n    uint landCounter = 0;\n    \n    struct NFTDetailsStruct {\n        uint id;\n        string name;\n        string symbol;\n        address admin;\n        address erc20Holdable;\n        uint sqft;\n        uint pricePerSqft;\n        uint monthlyRent;\n        string image;\n        uint sqftRemaining;\n        uint shareCounter;\n    }\n    \n    struct NFTSharesStruct {\n        uint nftId;\n        uint landBlockId;\n        address owner;\n        bool onLoan;\n        address loanedOwner;\n        uint cleanlinessScore;\n        uint aavegotchiId;\n        uint loanDeadLine;\n    }\n    \n    mapping(uint => ShareToken) public shareTokens;\n    mapping(uint => NftToken) public nftTokens;\n    mapping(uint => NFTDetailsStruct) public nftDetails;\n    mapping(uint => mapping(address => NFTSharesStruct)) public sharesdetails;\n    mapping(uint => mapping(address => uint)) public sharesCount;\n    \n    modifier onlyOwner {\n      require(msg.sender == owner);\n      _;\n    }\n    \n    constructor() public {\n        owner = msg.sender;\n    }\n    \n    function _mint(\n        string memory _name,\n        string memory _symbol, \n        uint _totalSqft, \n        uint _pricePerSqft,\n        uint _monthlyRent,\n        string memory _image\n    ) public onlyOwner {\n        \n        landCounter++;\n        \n        NftToken _nftToken = new NftToken(_name, _symbol, msg.sender, landCounter);\n        nftTokens[landCounter] = _nftToken;\n        \n        ShareToken _shareToken = new ShareToken(_name, _symbol, _totalSqft);\n        shareTokens[landCounter] = _shareToken;\n        \n        nftDetails[landCounter] = NFTDetailsStruct(landCounter, _name, _symbol, msg.sender, address(_shareToken), _totalSqft, _pricePerSqft, _monthlyRent, _image, _totalSqft, 0);\n    }\n    \n     function buyShare(uint _amount, uint _nftID, uint[] memory _landBlockID) public payable {\n        require(msg.sender != owner, 'Admin cannot buy shares');\n        \n        NFTDetailsStruct memory _nftDetails = nftDetails[_nftID];\n        _nftDetails.shareCounter = _nftDetails.shareCounter + 1;\n        _nftDetails.sqftRemaining = _nftDetails.sqftRemaining - _amount;\n        nftDetails[_nftID] = _nftDetails;\n       \n        uint userShare = sharesCount[_nftID][msg.sender];\n        \n        for (uint i = 0; i < _landBlockID.length; i++) {\n            sharesdetails[_nftID][msg.sender] = NFTSharesStruct(_nftID, _landBlockID[i], msg.sender, false, msg.sender, 0, 0, 0);\n        }\n        \n        if (userShare > 0) {\n            userShare = userShare + _amount;\n            sharesCount[_nftID][msg.sender] = userShare;\n        }\n        \n        shareTokens[_nftID].transferFrom(address(this), msg.sender, _amount);\n    }\n    \n    // // unsed function\n    // function approveCrowdSale(uint amount,uint id) public onlyOwner {\n    //     shareTokens[id].approve(address(this), amount);\n    // }\n    \n    // // helper functions\n    // function getERC20Name(uint id) public view returns(string memory) {\n    //     return shareTokens[id].returnName();\n    // }\n    \n    // function getNftBalance(uint id) public view returns (string memory){\n    //     return nftTokens[id].getNftName();\n    // }\n    \n    // function nftOwner(uint id) public view returns (address) {\n    //     return nftTokens[id].getNftOwner();\n    // }\n}",
  "sourcePath": "/Users/newsgate/Work/market-make/src/contracts/LandRFT.sol",
  "compiler": {
    "name": "solc",
    "version": "0.6.6+commit.6c089d02.Emscripten.clang"
  },
  "schemaVersion": "3.2.3",
  "updatedAt": "2021-01-21T11:11:32.007Z",
  "devdoc": {
    "methods": {}
  },
  "userdoc": {
    "methods": {}
  }
}