{
  "contractName": "Business",
  "abi": [
    {
      "inputs": [
        {
          "internalType": "address",
          "name": "_landSale",
          "type": "address"
        }
      ],
      "stateMutability": "nonpayable",
      "type": "constructor"
    },
    {
      "inputs": [
        {
          "internalType": "uint256",
          "name": "",
          "type": "uint256"
        },
        {
          "internalType": "uint256",
          "name": "",
          "type": "uint256"
        }
      ],
      "name": "nftsBusiness",
      "outputs": [
        {
          "internalType": "string",
          "name": "name",
          "type": "string"
        },
        {
          "internalType": "address",
          "name": "ownerAddress",
          "type": "address"
        },
        {
          "internalType": "uint256",
          "name": "landBlockId",
          "type": "uint256"
        },
        {
          "internalType": "uint256",
          "name": "nftId",
          "type": "uint256"
        },
        {
          "internalType": "uint256",
          "name": "rent",
          "type": "uint256"
        },
        {
          "internalType": "string",
          "name": "link",
          "type": "string"
        },
        {
          "internalType": "string",
          "name": "lastMileStone",
          "type": "string"
        },
        {
          "internalType": "string",
          "name": "currentMileStone",
          "type": "string"
        },
        {
          "internalType": "uint256",
          "name": "rentDate",
          "type": "uint256"
        },
        {
          "internalType": "bool",
          "name": "rentDue",
          "type": "bool"
        }
      ],
      "stateMutability": "view",
      "type": "function"
    },
    {
      "inputs": [
        {
          "internalType": "uint256",
          "name": "_nftId",
          "type": "uint256"
        },
        {
          "internalType": "uint256",
          "name": "_landBlockId",
          "type": "uint256"
        }
      ],
      "name": "getSharesDetails",
      "outputs": [
        {
          "internalType": "uint256",
          "name": "nftId",
          "type": "uint256"
        },
        {
          "internalType": "uint256",
          "name": "landBlockId",
          "type": "uint256"
        },
        {
          "internalType": "address",
          "name": "owner",
          "type": "address"
        },
        {
          "internalType": "bool",
          "name": "available",
          "type": "bool"
        },
        {
          "internalType": "bool",
          "name": "onLoan",
          "type": "bool"
        },
        {
          "internalType": "address",
          "name": "loanedOwner",
          "type": "address"
        },
        {
          "internalType": "uint256",
          "name": "cleanlinessScore",
          "type": "uint256"
        },
        {
          "internalType": "uint256",
          "name": "aavegotchiId",
          "type": "uint256"
        },
        {
          "internalType": "uint256",
          "name": "loanDeadLine",
          "type": "uint256"
        }
      ],
      "stateMutability": "view",
      "type": "function"
    },
    {
      "inputs": [
        {
          "internalType": "uint256",
          "name": "_nftId",
          "type": "uint256"
        }
      ],
      "name": "getNftDetails",
      "outputs": [
        {
          "internalType": "uint256",
          "name": "id",
          "type": "uint256"
        },
        {
          "internalType": "string",
          "name": "name",
          "type": "string"
        },
        {
          "internalType": "string",
          "name": "symbol",
          "type": "string"
        },
        {
          "internalType": "address",
          "name": "admin",
          "type": "address"
        },
        {
          "internalType": "address",
          "name": "erc20Holdable",
          "type": "address"
        },
        {
          "internalType": "uint256",
          "name": "sqft",
          "type": "uint256"
        },
        {
          "internalType": "uint256",
          "name": "pricePerSqft",
          "type": "uint256"
        },
        {
          "internalType": "uint256",
          "name": "monthlyRent",
          "type": "uint256"
        },
        {
          "internalType": "string",
          "name": "image",
          "type": "string"
        },
        {
          "internalType": "uint256",
          "name": "sqftRemaining",
          "type": "uint256"
        },
        {
          "internalType": "uint256",
          "name": "shareCounter",
          "type": "uint256"
        }
      ],
      "stateMutability": "view",
      "type": "function"
    },
    {
      "inputs": [
        {
          "internalType": "uint256",
          "name": "_nftId",
          "type": "uint256"
        },
        {
          "internalType": "uint256",
          "name": "_landBlockId",
          "type": "uint256"
        },
        {
          "internalType": "string",
          "name": "_name",
          "type": "string"
        },
        {
          "internalType": "string",
          "name": "_link",
          "type": "string"
        },
        {
          "internalType": "string",
          "name": "_lastMileStone",
          "type": "string"
        },
        {
          "internalType": "string",
          "name": "_currentMileStone",
          "type": "string"
        },
        {
          "internalType": "uint256",
          "name": "_rent",
          "type": "uint256"
        }
      ],
      "name": "installBusiness",
      "outputs": [],
      "stateMutability": "nonpayable",
      "type": "function"
    }
  ],
  "bytecode": "0x608060405234801561001057600080fd5b506040516112e83803806112e88339818101604052602081101561003357600080fd5b810190808051906020019092919050505080600160006101000a81548173ffffffffffffffffffffffffffffffffffffffff021916908373ffffffffffffffffffffffffffffffffffffffff16021790555050611253806100956000396000f3fe608060405234801561001057600080fd5b506004361061004c5760003560e01c80633acb87971461005157806342a11fd9146102a05780638f0480491461053e578063e85cd74814610622575b600080fd5b6100876004803603604081101561006757600080fd5b810190808035906020019092919080359060200190929190505050610831565b60405180806020018b73ffffffffffffffffffffffffffffffffffffffff1673ffffffffffffffffffffffffffffffffffffffff1681526020018a81526020018981526020018881526020018060200180602001806020018781526020018615151515815260200185810385528f818151815260200191508051906020019080838360005b8381101561012757808201518184015260208101905061010c565b50505050905090810190601f1680156101545780820380516001836020036101000a031916815260200191505b5085810384528a818151815260200191508051906020019080838360005b8381101561018d578082015181840152602081019050610172565b50505050905090810190601f1680156101ba5780820380516001836020036101000a031916815260200191505b50858103835289818151815260200191508051906020019080838360005b838110156101f35780820151818401526020810190506101d8565b50505050905090810190601f1680156102205780820380516001836020036101000a031916815260200191505b50858103825288818151815260200191508051906020019080838360005b8381101561025957808201518184015260208101905061023e565b50505050905090810190601f1680156102865780820380516001836020036101000a031916815260200191505b509e50505050505050505050505050505060405180910390f35b61053c600480360360e08110156102b657600080fd5b810190808035906020019092919080359060200190929190803590602001906401000000008111156102e757600080fd5b8201836020820111156102f957600080fd5b8035906020019184600183028401116401000000008311171561031b57600080fd5b91908080601f016020809104026020016040519081016040528093929190818152602001838380828437600081840152601f19601f8201169050808301925050505050505091929192908035906020019064010000000081111561037e57600080fd5b82018360208201111561039057600080fd5b803590602001918460018302840111640100000000831117156103b257600080fd5b91908080601f016020809104026020016040519081016040528093929190818152602001838380828437600081840152601f19601f8201169050808301925050505050505091929192908035906020019064010000000081111561041557600080fd5b82018360208201111561042757600080fd5b8035906020019184600183028401116401000000008311171561044957600080fd5b91908080601f016020809104026020016040519081016040528093929190818152602001838380828437600081840152601f19601f820116905080830192505050505050509192919290803590602001906401000000008111156104ac57600080fd5b8201836020820111156104be57600080fd5b803590602001918460018302840111640100000000831117156104e057600080fd5b91908080601f016020809104026020016040519081016040528093929190818152602001838380828437600081840152601f19601f82011690508083019250505050505050919291929080359060200190929190505050610b2c565b005b6105746004803603604081101561055457600080fd5b810190808035906020019092919080359060200190929190505050610cdb565b604051808a81526020018981526020018873ffffffffffffffffffffffffffffffffffffffff1673ffffffffffffffffffffffffffffffffffffffff16815260200187151515158152602001861515151581526020018573ffffffffffffffffffffffffffffffffffffffff1673ffffffffffffffffffffffffffffffffffffffff168152602001848152602001838152602001828152602001995050505050505050505060405180910390f35b61064e6004803603602081101561063857600080fd5b8101908080359060200190929190505050610e13565b604051808c815260200180602001806020018b73ffffffffffffffffffffffffffffffffffffffff1673ffffffffffffffffffffffffffffffffffffffff1681526020018a73ffffffffffffffffffffffffffffffffffffffff1673ffffffffffffffffffffffffffffffffffffffff1681526020018981526020018881526020018781526020018060200186815260200185815260200184810384528e818151815260200191508051906020019080838360005b8381101561071e578082015181840152602081019050610703565b50505050905090810190601f16801561074b5780820380516001836020036101000a031916815260200191505b5084810383528d818151815260200191508051906020019080838360005b83811015610784578082015181840152602081019050610769565b50505050905090810190601f1680156107b15780820380516001836020036101000a031916815260200191505b50848103825287818151815260200191508051906020019080838360005b838110156107ea5780820151818401526020810190506107cf565b50505050905090810190601f1680156108175780820380516001836020036101000a031916815260200191505b509e50505050505050505050505050505060405180910390f35b6000602052816000526040600020818154811061084a57fe5b90600052602060002090600a020160009150915050806000018054600181600116156101000203166002900480601f0160208091040260200160405190810160405280929190818152602001828054600181600116156101000203166002900480156108f75780601f106108cc576101008083540402835291602001916108f7565b820191906000526020600020905b8154815290600101906020018083116108da57829003601f168201915b5050505050908060010160009054906101000a900473ffffffffffffffffffffffffffffffffffffffff1690806002015490806003015490806004015490806005018054600181600116156101000203166002900480601f0160208091040260200160405190810160405280929190818152602001828054600181600116156101000203166002900480156109cd5780601f106109a2576101008083540402835291602001916109cd565b820191906000526020600020905b8154815290600101906020018083116109b057829003601f168201915b505050505090806006018054600181600116156101000203166002900480601f016020809104026020016040519081016040528092919081815260200182805460018160011615610100020316600290048015610a6b5780601f10610a4057610100808354040283529160200191610a6b565b820191906000526020600020905b815481529060010190602001808311610a4e57829003601f168201915b505050505090806007018054600181600116156101000203166002900480601f016020809104026020016040519081016040528092919081815260200182805460018160011615610100020316600290048015610b095780601f10610ade57610100808354040283529160200191610b09565b820191906000526020600020905b815481529060010190602001808311610aec57829003601f168201915b5050505050908060080154908060090160009054906101000a900460ff1690508a565b6000808881526020019081526020016000206040518061014001604052808781526020013373ffffffffffffffffffffffffffffffffffffffff16815260200188815260200189815260200183815260200186815260200185815260200184815260200162278d00420181526020016000151581525090806001815401808255809150506001900390600052602060002090600a02016000909190919091506000820151816000019080519060200190610be7929190611178565b5060208201518160010160006101000a81548173ffffffffffffffffffffffffffffffffffffffff021916908373ffffffffffffffffffffffffffffffffffffffff16021790555060408201518160020155606082015181600301556080820151816004015560a0820151816005019080519060200190610c69929190611178565b5060c0820151816006019080519060200190610c86929190611178565b5060e0820151816007019080519060200190610ca3929190611178565b5061010082015181600801556101208201518160090160006101000a81548160ff021916908315150217905550505050505050505050565b6000806000806000806000806000600160009054906101000a900473ffffffffffffffffffffffffffffffffffffffff1673ffffffffffffffffffffffffffffffffffffffff16631803f5748c60018d036040518363ffffffff1660e01b815260040180838152602001828152602001925050506101206040518083038186803b158015610d6857600080fd5b505afa158015610d7c573d6000803e3d6000fd5b505050506040513d610120811015610d9357600080fd5b810190808051906020019092919080519060200190929190805190602001909291908051906020019092919080519060200190929190805190602001909291908051906020019092919080519060200190929190805190602001909291905050509850985098509850985098509850985098509295985092959850929598565b600060608060008060008060006060600080600160009054906101000a900473ffffffffffffffffffffffffffffffffffffffff1673ffffffffffffffffffffffffffffffffffffffff16637d4cd8478d6040518263ffffffff1660e01b81526004018082815260200191505060006040518083038186803b158015610e9857600080fd5b505afa158015610eac573d6000803e3d6000fd5b505050506040513d6000823e3d601f19601f82011682018060405250610160811015610ed757600080fd5b810190808051906020019092919080516040519392919084640100000000821115610f0157600080fd5b83820191506020820185811115610f1757600080fd5b8251866001820283011164010000000082111715610f3457600080fd5b8083526020830192505050908051906020019080838360005b83811015610f68578082015181840152602081019050610f4d565b50505050905090810190601f168015610f955780820380516001836020036101000a031916815260200191505b5060405260200180516040519392919084640100000000821115610fb857600080fd5b83820191506020820185811115610fce57600080fd5b8251866001820283011164010000000082111715610feb57600080fd5b8083526020830192505050908051906020019080838360005b8381101561101f578082015181840152602081019050611004565b50505050905090810190601f16801561104c5780820380516001836020036101000a031916815260200191505b506040526020018051906020019092919080519060200190929190805190602001909291908051906020019092919080519060200190929190805160405193929190846401000000008211156110a157600080fd5b838201915060208201858111156110b757600080fd5b82518660018202830111640100000000821117156110d457600080fd5b8083526020830192505050908051906020019080838360005b838110156111085780820151818401526020810190506110ed565b50505050905090810190601f1680156111355780820380516001836020036101000a031916815260200191505b5060405260200180519060200190929190805190602001909291905050509a509a509a509a509a509a509a509a509a509a509a5091939597999b90929496989a50565b828054600181600116156101000203166002900490600052602060002090601f016020900481019282601f106111b957805160ff19168380011785556111e7565b828001600101855582156111e7579182015b828111156111e65782518255916020019190600101906111cb565b5b5090506111f491906111f8565b5090565b61121a91905b808211156112165760008160009055506001016111fe565b5090565b9056fea2646970667358221220f56e03c27f1ed3527f9b9dd15b67df92ac1e558bda8fa6d85446d0e3d4b5b39b64736f6c63430006060033",
  "immutableReferences": {},
  "source": "// SPDX-License-Identifier: MIT\n\npragma solidity >=0.6.0 <0.7.5;\n\nimport \"./LandCrowdSale.sol\";\n\ncontract Business {\n    struct businessDetails {\n        string name;\n        address ownerAddress;\n        uint256 landBlockId;\n        uint256 nftId;\n        uint256 rent;\n        string link;\n        string lastMileStone;\n        string currentMileStone;\n        uint256 rentDate;\n        bool rentDue;\n    }\n\n    mapping(uint256 => businessDetails[]) public nftsBusiness;\n\n    LandCrowdSale _landCrowdSale;\n\n    constructor(address _landSale) public {\n        _landCrowdSale = LandCrowdSale(_landSale);\n    }\n\n    function getSharesDetails(uint256 _nftId, uint256 _landBlockId)\n        public\n        view\n        returns (\n            uint256 nftId,\n            uint256 landBlockId,\n            address owner,\n            bool available,\n            bool onLoan,\n            address loanedOwner,\n            uint256 cleanlinessScore,\n            uint256 aavegotchiId,\n            uint256 loanDeadLine\n        )\n    {\n        return _landCrowdSale.sharesdetails(_nftId, _landBlockId - 1);\n    }\n\n    function getNftDetails(uint256 _nftId)\n        public\n        view\n        returns (\n            uint256 id,\n            string memory name,\n            string memory symbol,\n            address admin,\n            address erc20Holdable,\n            uint256 sqft,\n            uint256 pricePerSqft,\n            uint256 monthlyRent,\n            string memory image,\n            uint256 sqftRemaining,\n            uint256 shareCounter\n        )\n    {\n        return _landCrowdSale.nftDetails(_nftId);\n    }\n\n    function installBusiness(\n        uint256 _nftId,\n        uint256 _landBlockId,\n        string memory _name,\n        string memory _link,\n        string memory _lastMileStone,\n        string memory _currentMileStone,\n        uint256 _rent\n    ) public {\n        nftsBusiness[_nftId].push(\n            businessDetails(\n                _name,\n                msg.sender,\n                _landBlockId,\n                _nftId,\n                _rent,\n                _link,\n                _lastMileStone,\n                _currentMileStone,\n                block.timestamp + 30 * 86400,\n                false\n            )\n        );\n    }\n}\n",
  "sourcePath": "/Users/newsgate/Work/market-make/client/src/contracts/Business.sol",
  "compiler": {
    "name": "solc",
    "version": "0.6.6+commit.6c089d02.Emscripten.clang"
  },
  "schemaVersion": "3.3.3",
  "updatedAt": "2021-01-27T07:58:04.504Z",
  "devdoc": {
    "methods": {}
  },
  "userdoc": {
    "methods": {}
  }
}